:100000000C943A000C944C000C944C000C944C0052
:100010000C944C000C944C000C944C000C944C0030
:100020000C944C000C944C000C944C000C944C0020
:100030000C944C000C944C000C944C000C944C0010
:100040000C944C000C944C000C944C000C944C0000
:100050000C944C0051016F01530155015701590196
:100060005B015D015F016101630165016701690178
:100070006B016D0111241FBECFE5D8E0DEBFCDBFFF
:1000800020E0A0E6B0E001C01D92A936B207E1F77A
:100090000E944E030C941B050C9400000E947101F9
:1000A0002FEF32E597E0215030409040E1F700C05B
:1000B00000000895CF93DF93EC010E942C03CE0142
:1000C0000E943003DF91CF9108954B3249F018F42C
:1000D0004A3271F01CC04D3239F04F3289F017C0EE
:1000E0009C01260F371F17C09C01261B370B13C01E
:1000F000869F9001879F300D969F300D11240BC075
:100100006115710531F00E94AD049B0104C09C0192
:1001100002C020E030E0C9010895AF92CF92DF9293
:10012000EF92FF920F931F93CF93DF930F2EF5E083
:10013000AF2EF02D6894CC24C2F80F2EF3E0EF2EF2
:10014000F02D02E021E040E060E080E00E94AD029E
:1001500080E090E00E945A0000E010E0D0E0C12C66
:10016000D12CE12CF12C06C0DC2F01E003C0DC2FE8
:1001700001E012E00E944E00C82F90ED980F9A30D7
:1001800008F03FC011110AC090E07C0120E3E21AA0
:10019000F108C7010E945A0011E0ECCF1130B9F408
:1001A0009701220F331FC701880F991F880F991FCE
:1001B000880F991F820F931F2C2F30E02053310995
:1001C0007C01E20EF31EC7010E945A00D3CF123009
:1001D00089F6C601880F991F9601220F331F220F3F
:1001E000331F220F331F820F931F2C2F30E0205319
:1001F00031096C01C20ED31EC6010E945A0000E0F4
:10020000B9CF8B3231F08D3221F08A3211F08F323A
:1002100091F40111A9CF123009F0A9CF4D2FB601E9
:10022000C7010E9465007C010E945A00DC2F01E09A
:10023000C12CD12C9FCF8D3371F44D2FB601C70146
:100240000E9465007C010E945A0000E010E0D0E0AE
:10025000C12CD12C8FCF8F3661F480E090E00E94CA
:100260005A0000E010E0D0E0C12CD12CE12CF12CA0
:1002700081CF813709F07ECFDF91CF911F910F9110
:10028000FF90EF90DF90CF90AF900895482F50E00F
:10029000FA013197E031F10518F5E65DFF4F0C9456
:1002A000C10487E3089589E308958FE2089584E304
:1002B000089585E3089586E308958AE2089581E329
:1002C000089582E3089583E308958DE208958FE60B
:1002D000089580E308958DE308958BE2089588E3FF
:1002E0000895CF93DF93D0E02CC060E082E00E94BD
:1002F000530341E064E06D0F82E00E948B038D2F79
:1003000090E0049661E070E002C0660F771F8A9566
:10031000E2F7609582E00E947B03C0E00FC06C2F83
:1003200082E00E947704811108C0CC0FCC0F8C2F83
:100330008D0F8F5F0E94460107C0CF5FC43078F3F6
:10034000DF5FD43090F2CFCFDF91CF910895CF937C
:10035000C82F41E060916500809166000E94010411
:10036000C4FB442740F960916300809167000E94BC
:100370000104C5FB442740F9609162008091670049
:100380000E940104C6FB442740F9609161008091FE
:1003900067000E9401044C2F441F4427441F6091B2
:1003A0006000809167000E94010441E06091640058
:1003B000809166000E9401048FEC97E00197F1F7AD
:1003C00000C0000040E060916400809166000E94DF
:1003D00001044C2F417060916300809167000E947E
:1003E0000104C1FB442740F96091620080916700DD
:1003F0000E940104C2FB442740F960916100809192
:1004000067000E940104C3FB442740F9609160002B
:10041000809167000E94010441E060916400809136
:1004200066000E9401048FEC97E00197F1F700C08D
:10043000000040E060916400809166000E94010429
:100440008FE99FE00197F1F700C00000CF91089578
:10045000CF93C82F40E060916500809166000E94B4
:100460000104C4FB442740F9609163008091670058
:100470000E940104C5FB442740F96091620080910D
:1004800067000E940104C6FB442740F960916100A7
:10049000809167000E9401044C2F441F4427441F91
:1004A00060916000809167000E94010441E06091CA
:1004B0006400809166000E9401048FEC97E0019730
:1004C000F1F700C0000040E0609164008091660098
:1004D0000E940104809168008823B9F14C2F41707B
:1004E00060916300809167000E940104C1FB442772
:1004F00040F960916200809167000E940104C2FB94
:10050000442740F960916100809167000E940104D6
:10051000C3FB442740F960916000809167000E940E
:10052000010441E060916400809166000E94010432
:100530008FEC97E00197F1F700C0000040E0609178
:100540006400809166000E9401048FE99FE001979A
:10055000F1F700C00000CF910895AF92CF92EF92D3
:100560000F93CF93DF93C82FD62F642F809367000C
:10057000D09366004093650020936400009363006D
:10058000E0926200C0926100A092600041E08D2F75
:100590000E948B0341E0609164008D2F0E948B03C9
:1005A00041E0609163008C2F0E948B0341E06091D9
:1005B00062008C2F0E948B0341E0609161008C2FC0
:1005C0000E948B0341E0609160008C2F0E948B039E
:1005D0008FE59AEE0197F1F700C0000080E20E94DB
:1005E000280280E20E94280280E80E9428028FEC04
:1005F00097E00197F1F700C0000080E00E94280218
:1006000080EC0E9428028FEC97E00197F1F700C080
:10061000000080E00E94280280E10E9428028FE909
:100620009FE00197F1F700C0000081E0809368002F
:10063000DF91CF910F91EF90CF90AF900895CF932E
:10064000DF93EC0103C00E94A701219688818111EC
:10065000FACFDF91CF91089581E00E94280208959A
:10066000CF93DF93CDB7DEB760970FB6F894DEBFB8
:100670000FBECDBF4AE050E0BE016F5F7F4F0E94CA
:10068000DB04CE0101960E941F0360960FB6F8941A
:10069000DEBF0FBECDBFDF91CF9108950E948D00C8
:1006A00080E090E008956130A1F4813049F028F0B5
:1006B000823049F0833051F008958FEF8ABB08955E
:1006C0008FEF87BB08958FEF84BB08958FEF81BBB9
:1006D000089561110FC0813041F028F0823039F067
:1006E000833039F008951ABA089517BA089514BAE4
:1006F000089511BA0895813041F028F0823039F020
:10070000833039F008956BBB089568BB089565BBCD
:10071000089562BB0895843008F072C0683008F014
:100720006FC04130A1F5813089F028F08230C9F0E6
:10073000833011F108952AB381E090E002C0880F60
:10074000991F6A95E2F7822B8ABB089527B381E04F
:1007500090E002C0880F991F6A95E2F7822B87BB51
:10076000089524B381E090E002C0880F991F6A9534
:10077000E2F7822B84BB089521B381E090E002C0B0
:10078000880F991F6A95E2F7822B81BB089541116A
:1007900037C0813091F028F08230D9F0833029F1D0
:1007A00008952AB381E090E002C0880F991F6A95EE
:1007B000E2F7809582238ABB089527B381E090E019
:1007C00002C0880F991F6A95E2F78095822387BB44
:1007D000089524B381E090E002C0880F991F6A95C4
:1007E000E2F78095822384BB089521B381E090E0F5
:1007F00002C0880F991F6A95E2F78095822381BB1A
:100800000895843008F072C0683008F06FC041303D
:10081000A1F5813089F028F08230C9F0833011F1E0
:1008200008952BB381E090E002C0880F991F6A956C
:10083000E2F7822B8BBB089528B381E090E002C0E1
:10084000880F991F6A95E2F7822B88BB089525B31C
:1008500081E090E002C0880F991F6A95E2F7822B31
:1008600085BB089522B381E090E002C0880F991FF4
:100870006A95E2F7822B82BB0895411137C081301F
:1008800091F028F08230D9F0833029F108952BB30C
:1008900081E090E002C0880F991F6A95E2F7809589
:1008A00082238BBB089528B381E090E002C0880FBB
:1008B000991F6A95E2F78095822388BB089525B336
:1008C00081E090E002C0880F991F6A95E2F7809559
:1008D000822385BB089522B381E090E002C0880F97
:1008E000991F6A95E2F78095822382BB0895843030
:1008F00070F5683070F5813079F028F08230A9F019
:100900008330E1F028C089B390E002C095958795C7
:100910006A95E2F78170089586B390E002C09595DC
:1009200087956A95E2F78170089583B390E002C0DD
:10093000959587956A95E2F78170089580B390E068
:1009400002C0959587956A95E2F78170089580E0D9
:10095000089580E0089580E0089597FB072E16F42F
:10096000009407D077FD09D00E94C70407FC05D08A
:100970003EF4909581959F4F0895709561957F4FB6
:100980000895EE0FFF1F0590F491E02D0994AA1B26
:10099000BB1B51E107C0AA1FBB1FA617B70710F06A
:1009A000A61BB70B881F991F5A95A9F7809590959C
:1009B000BC01CD0108954532510520F4423010F0BC
:1009C0000C94E604FB011082CB010895BB274A304A
:1009D00031F4992322F4BDE2909581959F4F0C94B8
:1009E000F204BB27FB015527AA27880F991FAA1FCE
:1009F000A41710F0A41B83955051B9F7A05DAA333A
:100A000008F0A95DA193009779F7B111B193119204
:100A1000CB010C940B05DC01FC01672F719177234E
:100A2000E1F7329704C07C916D9370836291AE17A9
:0A0A3000BF07C8F30895F894FFCF44
:00000001FF
